{
  "contractName": "Carpooling",
  "abi": [
    {
      "inputs": [],
      "name": "rideCount",
      "outputs": [
        {
          "internalType": "uint256",
          "name": "",
          "type": "uint256"
        }
      ],
      "stateMutability": "view",
      "type": "function"
    },
    {
      "inputs": [
        {
          "internalType": "uint256",
          "name": "",
          "type": "uint256"
        }
      ],
      "name": "rides",
      "outputs": [
        {
          "internalType": "address",
          "name": "driver",
          "type": "address"
        },
        {
          "internalType": "string",
          "name": "startLocation",
          "type": "string"
        },
        {
          "internalType": "string",
          "name": "endLocation",
          "type": "string"
        },
        {
          "internalType": "uint256",
          "name": "price",
          "type": "uint256"
        },
        {
          "internalType": "bool",
          "name": "isAvailable",
          "type": "bool"
        }
      ],
      "stateMutability": "view",
      "type": "function"
    },
    {
      "inputs": [
        {
          "internalType": "string",
          "name": "_startLocation",
          "type": "string"
        },
        {
          "internalType": "string",
          "name": "_endLocation",
          "type": "string"
        },
        {
          "internalType": "uint256",
          "name": "_price",
          "type": "uint256"
        }
      ],
      "name": "addRide",
      "outputs": [],
      "stateMutability": "nonpayable",
      "type": "function"
    },
    {
      "inputs": [
        {
          "internalType": "uint256",
          "name": "_rideId",
          "type": "uint256"
        }
      ],
      "name": "bookRide",
      "outputs": [],
      "stateMutability": "payable",
      "type": "function"
    },
    {
      "inputs": [
        {
          "internalType": "uint256",
          "name": "_rideId",
          "type": "uint256"
        }
      ],
      "name": "getRide",
      "outputs": [
        {
          "internalType": "address",
          "name": "",
          "type": "address"
        },
        {
          "internalType": "string",
          "name": "",
          "type": "string"
        },
        {
          "internalType": "string",
          "name": "",
          "type": "string"
        },
        {
          "internalType": "uint256",
          "name": "",
          "type": "uint256"
        },
        {
          "internalType": "bool",
          "name": "",
          "type": "bool"
        }
      ],
      "stateMutability": "view",
      "type": "function"
    }
  ],
  "bytecode": "0x60806040525f600155348015610013575f80fd5b50611025806100215f395ff3fe608060405260043610610049575f3560e01c80632f37022b1461004d5780635205f112146100755780637c7b0ff4146100b5578063b47c1883146100f5578063c69b2cf61461011f575b5f80fd5b348015610058575f80fd5b50610073600480360381019061006e91906109d5565b61013b565b005b348015610080575f80fd5b5061009b60048036038101906100969190610a5d565b610245565b6040516100ac959493929190610b6a565b60405180910390f35b3480156100c0575f80fd5b506100db60048036038101906100d69190610a5d565b6103ad565b6040516100ec959493929190610b6a565b60405180910390f35b348015610100575f80fd5b50610109610595565b6040516101169190610bc9565b60405180910390f35b61013960048036038101906101349190610a5d565b61059b565b005b60015f81548092919061014d90610c0f565b91905055506040518060a001604052803373ffffffffffffffffffffffffffffffffffffffff168152602001848152602001838152602001828152602001600115158152505f8060015481526020019081526020015f205f820151815f015f6101000a81548173ffffffffffffffffffffffffffffffffffffffff021916908373ffffffffffffffffffffffffffffffffffffffff16021790555060208201518160010190816101fd9190610e50565b5060408201518160020190816102139190610e50565b50606082015181600301556080820151816004015f6101000a81548160ff021916908315150217905550905050505050565b5f602052805f5260405f205f91509050805f015f9054906101000a900473ffffffffffffffffffffffffffffffffffffffff169080600101805461028890610c83565b80601f01602080910402602001604051908101604052809291908181526020018280546102b490610c83565b80156102ff5780601f106102d6576101008083540402835291602001916102ff565b820191905f5260205f20905b8154815290600101906020018083116102e257829003601f168201915b50505050509080600201805461031490610c83565b80601f016020809104026020016040519081016040528092919081815260200182805461034090610c83565b801561038b5780601f106103625761010080835404028352916020019161038b565b820191905f5260205f20905b81548152906001019060200180831161036e57829003601f168201915b505050505090806003015490806004015f9054906101000a900460ff16905085565b5f6060805f805f805f8881526020019081526020015f206040518060a00160405290815f82015f9054906101000a900473ffffffffffffffffffffffffffffffffffffffff1673ffffffffffffffffffffffffffffffffffffffff1673ffffffffffffffffffffffffffffffffffffffff16815260200160018201805461043390610c83565b80601f016020809104026020016040519081016040528092919081815260200182805461045f90610c83565b80156104aa5780601f10610481576101008083540402835291602001916104aa565b820191905f5260205f20905b81548152906001019060200180831161048d57829003601f168201915b505050505081526020016002820180546104c390610c83565b80601f01602080910402602001604051908101604052809291908181526020018280546104ef90610c83565b801561053a5780601f106105115761010080835404028352916020019161053a565b820191905f5260205f20905b81548152906001019060200180831161051d57829003601f168201915b5050505050815260200160038201548152602001600482015f9054906101000a900460ff1615151515815250509050805f01518160200151826040015183606001518460800151955095509550955095505091939590929450565b60015481565b5f805f8381526020019081526020015f206040518060a00160405290815f82015f9054906101000a900473ffffffffffffffffffffffffffffffffffffffff1673ffffffffffffffffffffffffffffffffffffffff1673ffffffffffffffffffffffffffffffffffffffff16815260200160018201805461061b90610c83565b80601f016020809104026020016040519081016040528092919081815260200182805461064790610c83565b80156106925780601f1061066957610100808354040283529160200191610692565b820191905f5260205f20905b81548152906001019060200180831161067557829003601f168201915b505050505081526020016002820180546106ab90610c83565b80601f01602080910402602001604051908101604052809291908181526020018280546106d790610c83565b80156107225780601f106106f957610100808354040283529160200191610722565b820191905f5260205f20905b81548152906001019060200180831161070557829003601f168201915b5050505050815260200160038201548152602001600482015f9054906101000a900460ff16151515158152505090508060800151610795576040517f08c379a000000000000000000000000000000000000000000000000000000000815260040161078c90610f69565b60405180910390fd5b80606001513410156107dc576040517f08c379a00000000000000000000000000000000000000000000000000000000081526004016107d390610fd1565b60405180910390fd5b805f015173ffffffffffffffffffffffffffffffffffffffff166108fc826060015190811502906040515f60405180830381858888f19350505050158015610826573d5f803e3d5ffd5b505f805f8481526020019081526020015f206004015f6101000a81548160ff0219169083151502179055505050565b5f604051905090565b5f80fd5b5f80fd5b5f80fd5b5f80fd5b5f601f19601f8301169050919050565b7f4e487b71000000000000000000000000000000000000000000000000000000005f52604160045260245ffd5b6108b48261086e565b810181811067ffffffffffffffff821117156108d3576108d261087e565b5b80604052505050565b5f6108e5610855565b90506108f182826108ab565b919050565b5f67ffffffffffffffff8211156109105761090f61087e565b5b6109198261086e565b9050602081019050919050565b828183375f83830152505050565b5f610946610941846108f6565b6108dc565b9050828152602081018484840111156109625761096161086a565b5b61096d848285610926565b509392505050565b5f82601f83011261098957610988610866565b5b8135610999848260208601610934565b91505092915050565b5f819050919050565b6109b4816109a2565b81146109be575f80fd5b50565b5f813590506109cf816109ab565b92915050565b5f805f606084860312156109ec576109eb61085e565b5b5f84013567ffffffffffffffff811115610a0957610a08610862565b5b610a1586828701610975565b935050602084013567ffffffffffffffff811115610a3657610a35610862565b5b610a4286828701610975565b9250506040610a53868287016109c1565b9150509250925092565b5f60208284031215610a7257610a7161085e565b5b5f610a7f848285016109c1565b91505092915050565b5f73ffffffffffffffffffffffffffffffffffffffff82169050919050565b5f610ab182610a88565b9050919050565b610ac181610aa7565b82525050565b5f81519050919050565b5f82825260208201905092915050565b5f5b83811015610afe578082015181840152602081019050610ae3565b5f8484015250505050565b5f610b1382610ac7565b610b1d8185610ad1565b9350610b2d818560208601610ae1565b610b368161086e565b840191505092915050565b610b4a816109a2565b82525050565b5f8115159050919050565b610b6481610b50565b82525050565b5f60a082019050610b7d5f830188610ab8565b8181036020830152610b8f8187610b09565b90508181036040830152610ba38186610b09565b9050610bb26060830185610b41565b610bbf6080830184610b5b565b9695505050505050565b5f602082019050610bdc5f830184610b41565b92915050565b7f4e487b71000000000000000000000000000000000000000000000000000000005f52601160045260245ffd5b5f610c19826109a2565b91507fffffffffffffffffffffffffffffffffffffffffffffffffffffffffffffffff8203610c4b57610c4a610be2565b5b600182019050919050565b7f4e487b71000000000000000000000000000000000000000000000000000000005f52602260045260245ffd5b5f6002820490506001821680610c9a57607f821691505b602082108103610cad57610cac610c56565b5b50919050565b5f819050815f5260205f209050919050565b5f6020601f8301049050919050565b5f82821b905092915050565b5f60088302610d0f7fffffffffffffffffffffffffffffffffffffffffffffffffffffffffffffffff82610cd4565b610d198683610cd4565b95508019841693508086168417925050509392505050565b5f819050919050565b5f610d54610d4f610d4a846109a2565b610d31565b6109a2565b9050919050565b5f819050919050565b610d6d83610d3a565b610d81610d7982610d5b565b848454610ce0565b825550505050565b5f90565b610d95610d89565b610da0818484610d64565b505050565b5b81811015610dc357610db85f82610d8d565b600181019050610da6565b5050565b601f821115610e0857610dd981610cb3565b610de284610cc5565b81016020851015610df1578190505b610e05610dfd85610cc5565b830182610da5565b50505b505050565b5f82821c905092915050565b5f610e285f1984600802610e0d565b1980831691505092915050565b5f610e408383610e19565b9150826002028217905092915050565b610e5982610ac7565b67ffffffffffffffff811115610e7257610e7161087e565b5b610e7c8254610c83565b610e87828285610dc7565b5f60209050601f831160018114610eb8575f8415610ea6578287015190505b610eb08582610e35565b865550610f17565b601f198416610ec686610cb3565b5f5b82811015610eed57848901518255600182019150602085019450602081019050610ec8565b86831015610f0a5784890151610f06601f891682610e19565b8355505b6001600288020188555050505b505050505050565b7f52696465206e6f7420617661696c61626c6500000000000000000000000000005f82015250565b5f610f53601283610ad1565b9150610f5e82610f1f565b602082019050919050565b5f6020820190508181035f830152610f8081610f47565b9050919050565b7f496e73756666696369656e74207061796d656e740000000000000000000000005f82015250565b5f610fbb601483610ad1565b9150610fc682610f87565b602082019050919050565b5f6020820190508181035f830152610fe881610faf565b905091905056fea2646970667358221220d5bcd8e5e5a0f5c07ae654c9dfab2c42b08aa21ed0099cf5f556dea686c77c7564736f6c63430008150033",
  "immutableReferences": {},
  "source": "// SPDX-License-Identifier: MIT\r\npragma solidity ^0.8.21;\r\n\r\ncontract Carpooling {\r\n    struct Ride {\r\n        address driver;\r\n        string startLocation;\r\n        string endLocation;\r\n        uint price;\r\n        bool isAvailable;\r\n    }\r\n\r\n    mapping(uint => Ride) public rides;\r\n    uint public rideCount = 0;\r\n\r\n    function addRide(string memory _startLocation, string memory _endLocation, uint _price) public {\r\n        rideCount++;\r\n        rides[rideCount] = Ride(msg.sender, _startLocation, _endLocation, _price, true);\r\n    }\r\n\r\n    function bookRide(uint _rideId) public payable {\r\n        Ride memory ride = rides[_rideId];\r\n        require(ride.isAvailable, \"Ride not available\");\r\n        require(msg.value >= ride.price, \"Insufficient payment\");\r\n\r\n        payable(ride.driver).transfer(ride.price);\r\n        rides[_rideId].isAvailable = false;\r\n    }\r\n\r\n    function getRide(uint _rideId) public view returns (address, string memory, string memory, uint, bool) {\r\n        Ride memory ride = rides[_rideId];\r\n        return (ride.driver, ride.startLocation, ride.endLocation, ride.price, ride.isAvailable);\r\n    }\r\n}\r\n",
  "sourcePath": "C:\\Users\\bidya\\carpooling-dapp\\contracts\\Carpooling.sol",
  "compiler": {
    "name": "solc",
    "version": "0.8.21+commit.d9974bed.Emscripten.clang"
  },
  "schemaVersion": "3.4.16",
  "updatedAt": "2024-09-13T17:07:06.809Z",
  "devdoc": {
    "kind": "dev",
    "methods": {},
    "version": 1
  },
  "userdoc": {
    "kind": "user",
    "methods": {},
    "version": 1
  }
}